{
  "contractName": "Election",
  "abi": [
    {
      "inputs": [],
      "payable": false,
      "stateMutability": "nonpayable",
      "type": "constructor"
    },
    {
      "anonymous": false,
      "inputs": [
        {
          "indexed": true,
          "internalType": "string",
          "name": "_name",
          "type": "string"
        }
      ],
      "name": "NominatedEvent",
      "type": "event"
    },
    {
      "anonymous": false,
      "inputs": [
        {
          "indexed": true,
          "internalType": "uint256",
          "name": "_candidateId",
          "type": "uint256"
        }
      ],
      "name": "votedEvent",
      "type": "event"
    },
    {
      "constant": true,
      "inputs": [
        {
          "internalType": "address",
          "name": "",
          "type": "address"
        }
      ],
      "name": "Nominiee",
      "outputs": [
        {
          "internalType": "bool",
          "name": "",
          "type": "bool"
        }
      ],
      "payable": false,
      "stateMutability": "view",
      "type": "function"
    },
    {
      "constant": true,
      "inputs": [],
      "name": "availableNominations",
      "outputs": [
        {
          "internalType": "uint256",
          "name": "",
          "type": "uint256"
        }
      ],
      "payable": false,
      "stateMutability": "view",
      "type": "function"
    },
    {
      "constant": true,
      "inputs": [
        {
          "internalType": "uint256",
          "name": "",
          "type": "uint256"
        }
      ],
      "name": "candidates",
      "outputs": [
        {
          "internalType": "uint256",
          "name": "id",
          "type": "uint256"
        },
        {
          "internalType": "string",
          "name": "name",
          "type": "string"
        },
        {
          "internalType": "uint256",
          "name": "voteCount",
          "type": "uint256"
        }
      ],
      "payable": false,
      "stateMutability": "view",
      "type": "function"
    },
    {
      "constant": true,
      "inputs": [],
      "name": "candidatesCount",
      "outputs": [
        {
          "internalType": "uint256",
          "name": "",
          "type": "uint256"
        }
      ],
      "payable": false,
      "stateMutability": "view",
      "type": "function"
    },
    {
      "constant": true,
      "inputs": [],
      "name": "maxNominations",
      "outputs": [
        {
          "internalType": "uint256",
          "name": "",
          "type": "uint256"
        }
      ],
      "payable": false,
      "stateMutability": "view",
      "type": "function"
    },
    {
      "constant": true,
      "inputs": [
        {
          "internalType": "address",
          "name": "",
          "type": "address"
        }
      ],
      "name": "voters",
      "outputs": [
        {
          "internalType": "bool",
          "name": "",
          "type": "bool"
        }
      ],
      "payable": false,
      "stateMutability": "view",
      "type": "function"
    },
    {
      "constant": false,
      "inputs": [
        {
          "internalType": "uint256",
          "name": "_candidateId",
          "type": "uint256"
        }
      ],
      "name": "vote",
      "outputs": [],
      "payable": false,
      "stateMutability": "nonpayable",
      "type": "function"
    },
    {
      "constant": false,
      "inputs": [
        {
          "internalType": "string",
          "name": "_name",
          "type": "string"
        }
      ],
      "name": "Nomination",
      "outputs": [],
      "payable": false,
      "stateMutability": "nonpayable",
      "type": "function"
    }
  ],
  "bytecode": "0x608060405260046003556004805534801561001957600080fd5b5061005e6040518060400160405280600b81526020017f43616e64696461746520310000000000000000000000000000000000000000008152506100a760201b60201c565b6100a26040518060400160405280600b81526020017f43616e64696461746520320000000000000000000000000000000000000000008152506100a760201b60201c565b6101d5565b600260008154809291906001019190505550604051806060016040528060025481526020018281526020016000815250600160006002548152602001908152602001600020600082015181600001556020820151816001019080519060200190610112929190610130565b50604082015181600201559050506002546004540360038190555050565b828054600181600116156101000203166002900490600052602060002090601f016020900481019282601f1061017157805160ff191683800117855561019f565b8280016001018555821561019f579182015b8281111561019e578251825591602001919060010190610183565b5b5090506101ac91906101b0565b5090565b6101d291905b808211156101ce5760008160009055506001016101b6565b5090565b90565b610829806101e46000396000f3fe608060405234801561001057600080fd5b50600436106100885760003560e01c80634e435c3c1161005b5780634e435c3c146101ea578063a3ec138d146102a5578063c99aa84114610301578063f67d4be01461031f57610088565b80630121b93f1461008d57806317743140146100bb5780632d35a8a2146101175780633477ee2e14610135575b600080fd5b6100b9600480360360208110156100a357600080fd5b810190808035906020019092919050505061033d565b005b6100fd600480360360208110156100d157600080fd5b81019080803573ffffffffffffffffffffffffffffffffffffffff16906020019092919050505061045b565b604051808215151515815260200191505060405180910390f35b61011f61047b565b6040518082815260200191505060405180910390f35b6101616004803603602081101561014b57600080fd5b8101908080359060200190929190505050610481565b6040518084815260200180602001838152602001828103825284818151815260200191508051906020019080838360005b838110156101ad578082015181840152602081019050610192565b50505050905090810190601f1680156101da5780820380516001836020036101000a031916815260200191505b5094505050505060405180910390f35b6102a36004803603602081101561020057600080fd5b810190808035906020019064010000000081111561021d57600080fd5b82018360208201111561022f57600080fd5b8035906020019184600183028401116401000000008311171561025157600080fd5b91908080601f016020809104026020016040519081016040528093929190818152602001838380828437600081840152601f19601f820116905080830192505050505050509192919290505050610543565b005b6102e7600480360360208110156102bb57600080fd5b81019080803573ffffffffffffffffffffffffffffffffffffffff16906020019092919050505061069a565b604051808215151515815260200191505060405180910390f35b6103096106ba565b6040518082815260200191505060405180910390f35b6103276106c0565b6040518082815260200191505060405180910390f35b6000803373ffffffffffffffffffffffffffffffffffffffff1673ffffffffffffffffffffffffffffffffffffffff16815260200190815260200160002060009054906101000a900460ff161561039357600080fd5b6000811180156103a557506002548111155b6103ae57600080fd5b60016000803373ffffffffffffffffffffffffffffffffffffffff1673ffffffffffffffffffffffffffffffffffffffff16815260200190815260200160002060006101000a81548160ff0219169083151502179055506001600082815260200190815260200160002060020160008154809291906001019190505550807ffff3c900d938d21d0990d786e819f29b8d05c1ef587b462b939609625b684b1660405160405180910390a250565b60056020528060005260406000206000915054906101000a900460ff1681565b60025481565b6001602052806000526040600020600091509050806000015490806001018054600181600116156101000203166002900480601f0160208091040260200160405190810160405280929190818152602001828054600181600116156101000203166002900480156105335780601f1061050857610100808354040283529160200191610533565b820191906000526020600020905b81548152906001019060200180831161051657829003601f168201915b5050505050908060020154905083565b60006003541161055257600080fd5b600560003373ffffffffffffffffffffffffffffffffffffffff1673ffffffffffffffffffffffffffffffffffffffff16815260200190815260200160002060009054906101000a900460ff16156105a957600080fd5b6001600560003373ffffffffffffffffffffffffffffffffffffffff1673ffffffffffffffffffffffffffffffffffffffff16815260200190815260200160002060006101000a81548160ff02191690831515021790555061060a816106c6565b806040518082805190602001908083835b6020831061063e578051825260208201915060208101905060208303925061061b565b6001836020036101000a03801982511681845116808217855250505050505090500191505060405180910390207f408dae8b006d8707eef18564660fb19c73486897cdda63dee23a3b4c12d7f46260405160405180910390a250565b60006020528060005260406000206000915054906101000a900460ff1681565b60045481565b60035481565b60026000815480929190600101919050555060405180606001604052806002548152602001828152602001600081525060016000600254815260200190815260200160002060008201518160000155602082015181600101908051906020019061073192919061074f565b50604082015181600201559050506002546004540360038190555050565b828054600181600116156101000203166002900490600052602060002090601f016020900481019282601f1061079057805160ff19168380011785556107be565b828001600101855582156107be579182015b828111156107bd5782518255916020019190600101906107a2565b5b5090506107cb91906107cf565b5090565b6107f191905b808211156107ed5760008160009055506001016107d5565b5090565b9056fea265627a7a72315820a66c37689fe72c57f04a4cf8d8dafa0ee2dfa71c09551977a74daea47af9c9de64736f6c63430005100032",
  "source": "pragma solidity >=0.5.16;\n\ncontract Election {\n    // Model a Candidate\n    struct Candidate {\n        uint id;\n        string name;\n        uint voteCount;\n    }\n    event votedEvent (\n        uint indexed _candidateId\n    );\n\n    event NominatedEvent (\n        string indexed _name\n    );\n\n    // store votes accounts\n    mapping(address => bool) public voters;\n\n    // Read/write candidates\n    mapping(uint => Candidate) public candidates;\n\n    // Store Candidates Count\n    uint public candidatesCount;\n\n    // Remaining Nomination\n    uint public availableNominations=4;\n\n\n    //Maximum Nominations\n    uint public maxNominations = 4;\n\n    // store votes accounts\n    mapping(address => bool) public Nominiee;\n    \n\n    constructor () public {\n        addCandidate(\"Candidate 1\");\n        addCandidate(\"Candidate 2\");\n    }\n\n    function addCandidate (string memory _name) private {\n        candidatesCount ++;\n        candidates[candidatesCount] = Candidate(candidatesCount, _name, 0);\n        availableNominations = maxNominations - candidatesCount;\n    }\n\n\n    function vote (uint _candidateId) public {\n\n\n        require(!voters[msg.sender]);\n\n        require(_candidateId > 0 && _candidateId <= candidatesCount);\n\n        voters[msg.sender] = true;\n        \n\n        candidates[_candidateId].voteCount ++;\n\n        // trigger voted event\n        emit votedEvent( _candidateId);\n        \n    }\n\n    function Nomination (string memory _name) public {\n\n        require(availableNominations>0);\n\n\n        require(!Nominiee[msg.sender]);\n\n        Nominiee[msg.sender] = true;\n        addCandidate(_name);\n\n        // trigger voted event\n        emit NominatedEvent( _name);\n        \n    }\n\n    \n\n\n\n}",
  "sourcePath": "/home/kabilan/Documents/election/contracts/Election.sol",
  "compiler": {
    "name": "solc",
    "version": "0.5.16+commit.9c3226ce.Emscripten.clang"
  },
  "schemaVersion": "3.4.3",
  "updatedAt": "2021-12-13T17:02:28.784Z",
  "networkType": "ethereum",
  "devdoc": {
    "methods": {}
  },
  "userdoc": {
    "methods": {}
  }
}